:100000000C9435000C945D000C945D000C945D0024
:100010000C945D000C945D000C945D000C945D00EC
:100020000C945D000C945D000C945D000C945D00DC
:100030000C945D000C945D000C945D000C945D00CC
:100040000C940A030C945D000C942B050C945D0534
:100050000C945D000C945D000C945D000C945D00AC
:100060000C945D000C945D008D0511241FBECFEF34
:10007000D8E0DEBFCDBF12E0A0E0B1E0EEEBFCE0E7
:1000800002C005900D92A435B107D9F725E0A4E58B
:10009000B2E001C01D92A032B207E1F710E0CAE65B
:1000A000D0E004C02297FE010E945906C836D1074D
:1000B000C9F70E94D1050C945D060C94000026E05F
:1000C00040E855E260E070E083E894E00E94C904F3
:1000D0000E94AB02109257021092560210925502E3
:1000E000109254020C94DD029F92AF92BF92CF9275
:1000F000DF92EF92FF920F931F93CF93DF930E94B3
:10010000BA02B82E0E94CD02A82E2091560230913C
:10011000570222303105A1F154F42115310591F037
:100120002130310509F063C182E090E024C0243021
:10013000310509F458C10CF456C12530310509F4D4
:1001400052C155C160E071E083E894E00E9422064C
:1001500083E894E00E94E6030B9719F481E090E0B5
:100160000AC083E894E00E94E6030C970CF43FC1B8
:100170000E94FD023CC1909357028093560237C102
:10018000109259021092580260E076E1972EC3E077
:10019000D0E005E010E0809158029091590284313E
:1001A00091050CF0CEC0989EF001999EF00D11249F
:1001B000E054FD4F40915A0250915B022081318101
:1001C0004217530709F0B3C040915C0250915D02A1
:1001D000228133814217530709F0A9C040915E0282
:1001E00050915F02248135814217530709F09FC067
:1001F0004091600250916102268137814217530776
:1002000009F095C0409162025091630220853185CA
:100210004217530709F08BC0409164025091650268
:10022000228533854217530709F081C04091660249
:1002300050916702248535854217530709F077C02E
:10024000409168025091690226853785421753070D
:1002500009F06DC040916A0250916B02208931898A
:100260004217530709F063C0989EF001999EF00D64
:100270001124E054FD4F20916C0230916D0282896F
:1002800093892817390709F052C020916E023091E6
:100290006F02848995892817390709F048C067E1FA
:1002A00071E083E894E00E942206E0915802F09108
:1002B0005902F0937904E0937804AA2059F06EE291
:1002C00071E083E894E00E942206109357020093A5
:1002D00056022CC0EE0FFF1FEE0FFF1FE059FD4F1F
:1002E000C080D180E280F38088E8C80E83E1D81E08
:1002F000E11CF11C0E9454036C157D058E059F05C1
:1003000058F067E671E083E894E00E942206D093FB
:100310005702C09356020AC06BE771E083E894E08D
:100320000E942206109257021092560261E08091BC
:100330005802909159020196909359028093580265
:100340002ACF611115CFBB2009F442C01092590287
:1003500010925802C0E0D6E1809158029091590263
:10036000843191052CF5D89FF001D99FF00D11240F
:10037000E054FD4F20813181232B31F49093790497
:1003800080937804C1E00AC067EB71E083E894E0F1
:100390000E94220610925702109256028091580233
:1003A0009091590201969093590280935802D4CFAC
:1003B000CC2309F4DDCE61EE71E083E894E00E9485
:1003C000220684E090E09093570280935602D0CEAC
:1003D00067E172E083E894E00E94220610925702DF
:1003E00010925602C5CE109257021092560280917A
:1003F0005602909157022091540230915502821773
:10040000930709F49CC08330910509F440C044F47B
:10041000019709F094C010925902109258021AC024
:100420008430910509F453C0059709F088C02091E4
:100430007804309179044BE0429FC001439F900DB6
:100440001124880F991F80549D4F40E050E020E018
:1004500030E065C0C0915802D0915902CB30D1052F
:100460000CF06DC083E894E00E94FF03FE01EE0FE4
:10047000FF1FE65AFD4F918380838091580290912F
:10048000590201969093590280935802E3CF0E943B
:10049000B102C0917804D09179040E945403FE0106
:1004A000EE0FFF1FEE0FFF1FE059FD4F60837183BA
:1004B00082839383DF91CF911F910F91FF90EF90F3
:1004C000DF90CF90BF90AF909F900C94FD02209151
:1004D0007804309179044BE0429FC001439F900D16
:1004E0001124880F991F80549D4F40E050E020E078
:1004F00030E0FC01E20FF31FD901A65ABD4F6D9108
:100500007C91718360834F5F5F4F2E5F3F4F4B3015
:1005100051057CF3509359024093580210C0FC01DE
:10052000E40FF51F118210822F5F3F4F4E5F5F4F28
:100530002B303105A4F33093590220935802DF91F8
:10054000CF911F910F91FF90EF90DF90CF90BF90D0
:10055000AF909F90089582E58AB917B880E284B978
:1005600008952D9A68EB7BE080E090E00E94830381
:100570002D980895459A35990EC062E070E080E0AC
:1005800090E00E948303459A86B185FB882780F915
:1005900091E08927089580E00895409A30990BC032
:1005A00062E070E080E090E00E948303409A86B1B0
:1005B00080958170089580E0089540E050E020E04B
:1005C00030E080E090E02A5E3F4F8431910584F472
:1005D000F901E054FD4F11821082FA01E059FD4FFC
:1005E00010821182128213824C5F5F4F0196EBCF13
:1005F0009093590280935802089583E894E00E94F2
:10060000E603181619062CF483E894E00E94FF0311
:10061000F4CF08951F920F920FB60F9211242F93CB
:100620003F938F939F93AF93BF9380917B0490915F
:100630007C04A0917D04B0917E0430917A0423E083
:10064000230F2D3720F40196A11DB11D05C026E80A
:10065000230F0296A11DB11D20937A0480937B0481
:1006600090937C04A0937D04B0937E0480917F04DA
:1006700090918004A0918104B09182040196A11D03
:10068000B11D80937F0490938004A0938104B09364
:100690008204BF91AF919F918F913F912F910F90C5
:1006A0000FBE0F901F9018952FB7F89460917B04A0
:1006B00070917C0480917D0490917E042FBF0895F9
:1006C0003FB7F89480917F0490918004A0918104B9
:1006D000B091820426B5A89B05C02F3F19F0019662
:1006E000A11DB11D3FBF6627782F892F9A2F620F5A
:1006F000711D811D911D42E0660F771F881F991F94
:100700004A95D1F70895CF92DF92EF92FF92CF935F
:10071000DF936B017C010E946003EB01C114D104E3
:10072000E104F10489F00E9434060E9460036C1B0E
:100730007D0B683E734090F381E0C81AD108E10850
:10074000F108C851DC4FEACFDF91CF91FF90EF90D5
:10075000DF90CF900895789484B5826084BD84B58D
:10076000816084BD85B5826085BD85B5816085BDAC
:10077000EEE6F0E0808181608083E1E8F0E01082C5
:10078000808182608083808181608083E0E8F0E006
:10079000808181608083E1EBF0E0808184608083F0
:1007A000E0EBF0E0808181608083EAE7F0E0808127
:1007B0008460808380818260808380818160808387
:1007C0008081806880831092C1000895FC01818D32
:1007D000228D90E0805C9F4F821B91098F73992737
:1007E0000895FC01918D828D981731F0828DE80F6C
:1007F000F11D858D90E008958FEF9FEF0895FC0126
:10080000918D828D981761F0828DDF01A80FB11D47
:100810005D968C91928D9F5F9F73928F90E008956B
:100820008FEF9FEF089583E895E0892B49F080E0F2
:1008300090E0892B29F00E94830581110C9400001F
:100840000895FC01848DDF01A80FB11DA35ABF4F8D
:100850002C91848D90E001968F739927848FA689BF
:10086000B7892C93A089B1898C9180648C93938DE6
:10087000848D981306C00288F389E02D80818F7DD6
:1008800080830895CF93DF93EC01888D8823C9F08E
:10089000EA89FB89808185FD05C0A889B9898C9189
:1008A00086FD0FC00FB607FCF5CF808185FFF2CF24
:1008B000A889B9898C9185FFEDCFCE010E942104D2
:1008C000E7CFDF91CF910895CF92DF92FF920F9300
:1008D0001F93CF93DF931F92CDB7DEB76C0181E0FA
:1008E000D60158968C9358975B969C915B975C9633
:1008F0008C915C97981307C05096ED91FC9151979D
:10090000808185FD2EC0F601038D10E00F5F1F4F23
:100910000F731127F02EF601848DF81211C00FB657
:1009200007FCF9CFD6015096ED91FC91519780814B
:1009300085FFF1CFC60169830E9421046981EBCF55
:10094000838DE80FF11DE35AFF4F6083D6015B965C
:100950000C935B975296ED91FC9153978081806246
:100960000CC0D6015696ED91FC9157976083509636
:10097000ED91FC91519780818064808381E090E0CB
:100980000F90DF91CF911F910F91FF90DF90CF904B
:100990000895BF92CF92DF92EF92FF92CF93DF93B1
:1009A000EC016A017B01B22EE889F98982E080833B
:1009B000411581EE580761057105A1F060E079E00D
:1009C0008DE390E0A70196010E9435062150310980
:1009D000410951095695479537952795211580E18D
:1009E000380798F0E889F989108260E874E88EE1A8
:1009F00090E0A70196010E94350621503109410976
:100A000051095695479537952795EC85FD85308397
:100A1000EE85FF852083188EEC89FD89B082EA89F6
:100A2000FB89808180618083EA89FB89808188607D
:100A30008083EA89FB89808180688083EA89FB89D9
:100A400080818F7D8083DF91CF91FF90EF90DF9049
:100A5000CF90BF9008951F920F920FB60F9211245E
:100A60002F938F939F93EF93FF93E0919304F091D3
:100A700094048081E0919904F0919A0482FD12C05F
:100A8000908180919C048F5F8F7320919D048217C9
:100A900051F0E0919C04F0E0ED57FB4F958F80936F
:100AA0009C0401C08081FF91EF919F918F912F91C4
:100AB0000F900FBE0F901F9018951F920F920FB6B8
:100AC0000F9211242F933F934F935F936F937F93D4
:100AD0008F939F93AF93BF93EF93FF9383E894E03B
:100AE0000E942104FF91EF91BF91AF919F918F914F
:100AF0007F916F915F914F913F912F910F900FBE1A
:100B00000F901F90189583E894E00E94E60321E07F
:100B1000892B09F420E0822F089510928604109208
:100B2000850488EE93E0A0E0B0E080938704909382
:100B30008804A0938904B0938A0488E392E0909398
:100B400084048093830485EC90E0909390048093D8
:100B50008F0484EC90E0909392048093910480EC55
:100B600090E0909394048093930481EC90E09093B0
:100B700096048093950482EC90E09093980480937F
:100B8000970486EC90E090939A04809399041092D5
:100B90009C0410929D0410929E0410929F0408954C
:100BA00008950E94AB030E94D0050E945F00C3E13C
:100BB000D4E00E9474002097E1F30E941304F9CF5F
:100BC000CF92DF92EF92FF920F931F93CF93DF9319
:100BD0007C016A01EB0100E010E00C151D0571F0CD
:100BE0006991D701ED91FC910190F081E02DC70151
:100BF0000995892B19F00F5F1F4FEFCFC801DF91C7
:100C0000CF911F910F91FF90EF90DF90CF900895BB
:100C10006115710581F0DB010D900020E9F7AD0150
:100C200041505109461B570BDC01ED91FC910280AC
:100C3000F381E02D099480E090E0089564E472E08F
:100C40000C9408060F931F93CF93DF93EC010E943F
:100C500008068C01CE010E941E06800F911FDF91B5
:100C6000CF911F910F9108950895A1E21A2EAA1B0A
:100C7000BB1BFD010DC0AA1FBB1FEE1FFF1FA2174C
:100C8000B307E407F50720F0A21BB30BE40BF50B49
:100C9000661F771F881F991F1A9469F760957095D2
:100CA000809590959B01AC01BD01CF010895EE0F99
:0E0CB000FF1F0590F491E02D0994F894FFCFFA
:100CBE00417474656E7465206427756E652063617A
:100CCE007274652E2E2E004C612063617274652045
:100CDE00657374206578697374616E7465004C6514
:100CEE002042503220657374206170707579652CC6
:100CFE00206F6E207375707072696D6520636574F8
:100D0E007465206361727465206465206C61206D6A
:100D1E00656D6F697265004C612063617274652048
:100D2E006573742076616C696465004C6120636143
:100D3E0072746520612064656A6120657465206146
:100D4E0063746976656520647572616E74206C6576
:100D5E00732035206465726E6965726573207365E4
:100D6E00636F6E646573004C65206E6F6D627265A5
:100D7E00206D6178696D616C2064652063617274A9
:100D8E0065732061206574652061747465696E7485
:100D9E00004C65204250312065737420617070756F
:100DAE0079652C206F6E20616A6F7574652063659E
:100DBE007474652063617274652061206C61206DAE
:100DCE00656D6F6972650043657474652063617249
:100DDE007465206E27657374207061732076616C64
:100DEE0069646500000000006404E005E603FF038B
:100DFE00F10342040D0A006E616E00696E66006FAB
:040E0E007666000004
:00000001FF
